:020000040000FA
:10101000E43F0020895E0000657F0000657F0000DE
:10102000657F0000657F0000657F0000657F000030
:10103000657F0000657F0000657F0000657F000020
:10104000657F0000657F0000A78200002DE9F84F52
:10105000054640F29421012441F22D00C4F22231D0
:10106000C4F2090040F81D4C086810B9086800284F
:10107000FAD046F2000043F6B477C021C4F20C0067
:10108000C5F2000701603E6857F8040C46F256228C
:10109000C4F20802800806D257F8080C000C40F091
:1010A000F000107001E07220107041F2B820C5F21B
:1010B00000000068C0F3046007F0B5FC39680B1746
:1010C0001B185B1C13F10A0FB8BF6FF009034FF038
:1010D000000CF10EB00E03F01F0381F00101C4F209
:1010E000203C80F0010043F4F85301F00101138328
:1010F00000F00100CCF800103146CCF8080028467A
:1011000001F002FD814607F011FD0021002808BF13
:10111000211C48F20008C4F20C08D8F8000018B9E5
:10112000D8F800000028F8D04AF2080AC4F20C0AE5
:10113000CAF81090C8F8004009B107F0FDFC284635
:1011400006F070FE40F2FF32002380B22C210090A6
:101150004AF20000C4F20C0003F0DEFF284607F05C
:1011600029F9814607F0E2FC0021002808BF211C74
:10117000D8F8000018B9D8F800000028F8D0CAF84C
:101180001490C8F8004009B107F0D6FC284606F0D4
:10119000D3FB814607F0CAFC0021002808BF211CB0
:1011A000D8F8000018B9D8F800000028F8D0CAF81C
:1011B0000C90C8F8004009B107F0BEFC284606F0C4
:1011C000DDFD814607F0B2FC0021002808BF211C8C
:1011D000D8F8000018B9D8F800000028F8D0CAF8EC
:1011E0000890C8F8004009B107F0A6FC284602F0B4
:1011F0008DFF814607F09AFC0021002808BF211CC2
:10120000D8F8000018B9D8F800000028F8D0CAF8BB
:101210000490C8F8004009B107F08EFC284607F09A
:1012200099F84AF24009C4F20C09400040F020004D
:1012300089F80901284607F099F840F0100089F86C
:101240000901284606F0FEFD834607F06FFC0021E9
:10125000002808BF211CD8F8000018B9D8F80000F1
:101260000028F8D0CAF820B0C8F8004009B107F04B
:1012700063FC284607F086F8400040F0600089F8DB
:101280000C01284607F08AF8C00040F0800089F879
:101290000101284607F09AF8800040F47C40A9F844
:1012A0009C01284606F0B4F8834607F03FFC002175
:1012B000002808BF211CD8F8000018B9D8F8000091
:1012C0000028F8D0CAF800B0C8F8004009B107F00B
:1012D00033FC442089F8C5004FF0880E89F8C7E038
:1012E000284607F093F940F03001C6F3815089F8A1
:1012F000C81078B3401E06D0401E26D0042002211C
:1013000004F011F930E0204606F0F2FB0546042017
:10131000294604F008F9042006F0EAFB8542FAD1D8
:1013200057F80C5C25F07F4005F0EEFC40F2B4105D
:10133000C1F200000068036807214FF06022280E08
:1013400098474FF48060C9F800000420032104F09E
:10135000EAF809E00420214604F0E5F843F2BD7004
:10136000C0F2860005F0D0FC41F2B820C5F20000C2
:10137000D0F8B4004BF2700242F22C0E46F2000B91
:1013800047F618014FF0000C41F22D0AC4F20C028E
:10139000C4F2090E40F2944800F03F0089F8CB0FE8
:1013A000C4F20C0B1180DEF80000CBF800C0C4F2D0
:1013B000090A4AF81DCCC4F26028C8F80040BDE80C
:1013C000F88F70472DE9F04F0028ADF1140D00F0B3
:1013D000F5802020EFF3118280F31188824D287967
:1013E000012818BF012002D102210020297182F3B7
:1013F0001188012800F0E08072484FF0010904884C
:10140000A0F80090484605F043FF002802941CBF56
:1014100085F80490071C40F0CA806B486B49002790
:101420000488A0F8009048460F6006F061FB012890
:1014300001941CBF381C039004D1384604F07AFF95
:10144000CDF80C90624E3068806801463846884777
:10145000664C644819300A340090D0F8FF0FE779E1
:10146000002F0CBF4FF00008C846A7790FB148F015
:10147000020867790FB148F0040867782FB1B06AA5
:101480005449006B0246C88D904727782FB1B06A47
:101490005049006B0246488D90474F48C0F8009075
:1014A000B06A8069014648F0200088474B4F2968A0
:1014B000386840F001003860480815D2484807F005
:1014C000A4FA8246BAF1040FF8D0D7F8180220F037
:1014D0000300C7F81802B06C406802464048032178
:1014E00090474FF0000B00E0CB46002000F0ACFC32
:1014F000B06A0099806BD1F8FF1F8047BBF1000FE5
:101500000BD1B06C40680246354851469047D7F839
:10151000180240F00300C7F81802306880680146DE
:10152000484688472F4801688909FCD30398012859
:1015300002D1484604F0FEFEB06A406901464046CA
:101540008847B06A406B0146404688470128F8D179
:1015500063782BB1B06A1F49C06A0246C88D9047B4
:1015600024782CB1B06A1B49C06A0246488D904766
:1015700019480321C0F800903868297120F0010053
:101580003860042005F084FE1048009EC0F80090EA
:10159000D6F8FF0F07F0D0FA082005F079FE0746CD
:1015A000019885F8049005F0CDF803F06BFC0298E3
:1015B00006F044F9F8B202E0062000E0022005B08F
:1015C000BDE8F08F50280020E42400200C400940A2
:1015D00090010010EC8E0000282008600C200840CC
:1015E0000040034014100940A4260020402400209D
:1015F0002DE9F0410446DFF81C82A2780026101C79
:1016000000F0D780801E00F0B180401E012840F21B
:101610008780801E52D0401E26D0401E03D008383E
:1016200000F0EA80EBE0454605F1F00007F0ABFB87
:101630006078002840F0E380E0882884208968846E
:101640006089A88405F1CC0007F044F9002840F037
:10165000D6806B6B002B00F0D2801B68288C698CC5
:10166000AA8C9847BDE8F081A08806F067FA454645
:101670003146062205F1440002F0D0FE2E846E842D
:10168000AE84A079687305F1CC0007F07CFB05F10E
:10169000F00007F078FB01264FF6FF702F79E88203
:1016A0004FB9A079082814BF04200520687030467F
:1016B00006F034FFA3E003206870A0E04546677899
:1016C000EA7A2FBB211D0B6805F14400036089886D
:1016D000818006276F706089E882E0892884208AEB
:1016E0006884608AA884E078012A28730AD11F20C0
:1016F00004F0C0FE4FF47A71024605F1CC0051436C
:1017000005F092F8E0786289211D05F039F878E05B
:101710006078312818BF08201CD1EE70042019E031
:101720006778002F63D14546A98A6878032A13D0C9
:10173000EA782F7921B9012A14BF2E71EE7006E0E4
:10174000174304D005F1A80005F06EF86878072863
:10175000E4D10620687054E0062805D0E878002817
:101760000CBF03200220F5E70720F3E76078651C33
:1017700000283CD14046E77881798FB94178022929
:1017800014D0072912D0062902D1017901290DD1DF
:10179000A83007F09FF848B9012006F0BFFE05E029
:1017A00000F18902304603F00FFF28702878F0B965
:1017B00025E06078D8B945460220102105F14A029B
:1017C00005F00AFB0320102105F15A0205F004FB85
:1017D000E41C05F13800A7882168878005F16A02BA
:1017E000016001206979687003F0EEFE48B145465A
:1017F00008206D1C287004E0A08807F067F9012E0E
:1018000006D14546286B18B1016809B16878884748
:10181000BDE8F081F41E0020F8B5A0F201351746AE
:101820000E46022D40F205818249834A2D1F0F2D5D
:1018300004D9143D4AD0AD1E1CD011E0DFE815F0EC
:10184000B500B000E600D600A900A200F9009A0099
:101850009300100010008C00820077006D00600083
:10186000272880F2E680022E40F0E380398805F0D8
:1018700095F9F8BD012E40F0DC800A4690780128E9
:1018800000F0D780D1783878D07081B9002800F086
:10189000D0801078012800F09B80042800F0988008
:1018A000062800F09580052800F09280F8BD387871
:1018B000002840F0BE801078032800F094800728AC
:1018C00000F09180052800F08E80F8BD012E40F0D8
:1018D000B0803878012840F0AC80154605F1F00062
:1018E00006F0F8FF002840F0A480002002F0E2FF9C
:1018F000002840F09E802846CC3007F044FAF8BD1E
:10190000022E40F0968038880A28C0F29280B0F506
:10191000486F00F38E801D3112E0022E40F0898066
:101920003888B0F5FA7F80F284801B3108E0022EFF
:101930007FD1388806287CDBB0F5486F79DC193117
:101940000880F8BD022E74D13888062871DBB0F506
:10195000486F6EDC1731F3E7012E6AD13878022820
:1019600067DA0A310CE0012E63D13878042860DA96
:10197000093105E0012E5CD13878082859DA0831A0
:101980000870F8BD012E54D13878042851DAC91DE9
:10199000F6E7012E4DD1387804284ADC891DEFE79F
:1019A000022E46D138881331CAE7012E41D10A46AA
:1019B000D07801283DD091783878907061B90028AE
:1019C00037D01078012803D0042818BF052830D15B
:1019D000012006F0A3FDF8BD387850BB107802282E
:1019E00018BF052825D106F035FFF8BD154605F1CD
:1019F000890400211F22204602F010FD394632469C
:101A0000204602F03FF90020AE710EE0154605F1C8
:101A10006A0400211F22204602F000FD39463246AA
:101A2000204602F02FF901206E713146224603F064
:101A3000CBFDF8BDF51E0020F41E00202DE9F84F67
:101A40007E49814CD1F8EF2F6768D1F8F30F9043AE
:101A5000C1F8F30F002FC1F8FF2F00F0EA8066886D
:101A6000012F00F0CC80764E022F43D0032F40F0A0
:101A7000E2800022A06851F8311C62600028A1F5C4
:101A8000C061B8BF40420A46002AB8BF52429042E5
:101A900080F2B180002954BF02206FF00100A269DA
:101AA00000EB4100032190FBF1F18918A161E3688B
:101AB000606998420BD0B1F11002B8BF5242206960
:101AC0001038B8BF40428242B8BF88B209DB98B232
:101AD000009030214FF47F420823304603F01CFB76
:101AE000208A009004214FF4F8021223304603F0BC
:101AF00013FB80E051F8318CB8F5C06F79D04FF00E
:101B00000309C4F8049007F011F8002100B901217D
:101B10004E4D2D1F28680028FCD0B2460AF104075C
:101B20000126D7F82CB02E6009B107F005F8CBF3E9
:101B30000720E06006F0FAFF002300B933461A469A
:101B40002B68002BFCD03F682E600AB106F0F4FF32
:101B5000C7F38441A8F5C0602161B8F5C06FA060EB
:101B6000B4BF6FF001020222E36802EB400292FB75
:101B7000F9F0091802290FDB1E290BDB3F2BB9BF37
:101B8000581C5B1C3F20031C60613029B4BF103916
:101B90001F210DE063610BE013F13F0FACBF5B1E33
:101BA0006FF03F03636111F1100FACBF10310021E2
:101BB000A16198B24FF47F42302108230090504633
:101BC00003F0AAFA0096504604214FF40032112384
:101BD00003F0A2FA208B04214FF4F80212230090A4
:101BE000504603F099FA0020314603F047FBBDE868
:101BF000F88F0020606005F0BBF8BDE8F88F51F861
:101C0000312C4BF2F520022161605043010A36B9B4
:101C10000C48006820F07F400918490801E00020C6
:101C200060800B48083001600A0C42600126866023
:101C3000D9E702F057FDBDE8F88FC04639400C40A7
:101C400000A00C4010200940602A002004800C40B5
:101C500034600C402DE9F0411C4615468C4208BF0B
:101C6000854282BF00230022E5E0002C08BF002D42
:101C70000AD100290EBF00286FF000006FF00001AC
:101C800000F0E1F8BDE8F0815FF000085FF0000EC1
:101C9000002C08BF8D429CBF2C1C0025070C47EA76
:101CA00001470E0CB44208BFBD429EBF5FEA044428
:101CB00044EA15445FEA0545070A47EA01670E0A48
:101CC000B44208BFBD429EBF5FEA042444EA1564E3
:101CD0005FEA0525470847EAC1774E08B44208BFC6
:101CE000BD4200F29380870847EA81778E08B442AC
:101CF00008BFBD427CD8C70847EA4177CE08B44246
:101D000008BFBD4266D8070947EA01770E09B44209
:101D100008BFBD4250D8470947EAC1674E09B442DF
:101D200008BFBD423AD8870947EA81678E09B442A5
:101D300008BFBD4224D8C70947EA4167CE09B4426B
:101D400008BFBD420DD8E60146EA5566EF01B14233
:101D500008BFB84201D3C01BB14158EB08085EEB85
:101D60000E0EA60146EA95664FEA8517B14208BFF6
:101D7000B84201D3C01BB14158EB08084EEB0E0E20
:101D8000660146EAD5666F01B14208BFB84201D389
:101D9000C01BB14158EB08084EEB0E0E260146EA77
:101DA00015762F01B14208BFB84201D3C01BB14123
:101DB00058EB08085EEB0E0EE60046EA5576EF009B
:101DC000B14208BFB84201D3C01BB14158EB08086B
:101DD0004EEB0E0EA60046EA9576AF00B14208BF64
:101DE000B84201D3C01BB14158EB08084EEB0E0EB0
:101DF000660046EAD5766F00B14208BFB84201D30B
:101E0000C01BB14158EB08085EEB0E0EA14208BFA3
:101E1000A84201D3401BA14158EB08085EEB0E0E0F
:101E2000A34208BFAA423EBF2D0A45EA0465240A20
:101E300089D3734642461E4617460B460246314634
:101E40003846BDE8F0817047F8B507460020C4F277
:101E500009000068800880F0C98005F04CFB42F260
:101E60002421C4F208010A68002112F0030F18BFF0
:101E70000121D20828BF41F00201002F18BF41F014
:101E8000040141F63836C2F2000696F90720821A9C
:101E9000052A04DAB2798A4208BFB28870D041F2CA
:101EA0009C340F28A0F10F02C5F2000425DB02EBE1
:101EB00002121712072F88BF0727BC46BCF1060F76
:101EC00088BF4FF0060C54F82CE00423254603EBA2
:101ED0008C03EB58CD08A3EB0E0303F0FF0C24BFDB
:101EE000C3F30725AC448D0824BFC3F30745AC44B6
:101EF0004D0805D30CEB136C02E04FF0000C674665
:101F000054F82730CC0803F0FF0524BFC3F307249F
:101F100025448C0824BFC3F3074425444C0828BF3C
:101F200005EB1365A2EB07221FFA8CF353438033B2
:101F30000022082B88BF012243F6B473C5F20003C8
:101F40001C681B684FF4D07C34275219241703F007
:101F5000FF0307FB14C45C434FF6FF73B4FBF2F2BC
:101F6000934238BF1A1C802892B2B28005DA10F171
:101F7000800F03DA6FF07F0000E07F20F071B17115
:101F800042F20800C4F2090001681F2A4FF0000065
:101F9000316015D340F2FF13934213D21946520811
:101FA000401C93420ED25208401C93420AD252085F
:101FB000401C914206D25208401C9142EFD301E0EE
:101FC0001F22B2800F3A4FF600714FF0350E120902
:101FD000C8F2A401C4F2090E40EAC2000143CEF8DF
:101FE000FB1F4FF0000CCEF8FFCFF8BD41F63E329C
:101FF0004FF6FD50082141F2300EC2F20002C0F24D
:10200000A4001170C4F2090ECEF80000F8BD7047AC
:102010002DE9F04FADF15C0D04F08BFD0027012898
:1020200004D106F067F9022808BF01275149086862
:10203000C0F38150012806D151F80C0C0126010E85
:1020400006FA01F007434C484C4E00783068C0F364
:10205000460604F06EFD012808BF761C484C266039
:102060003EB1FF2204F140013046401E01F8012B31
:10207000FBD1DFF81091D9F800004FF0000800F014
:10208000FF01FF2918D04D4600F0FF034146012211
:102090009E426CD902FA03F31F4268D100F0FF00A0
:1020A000201880F8401055F8040F43EA0808491C2E
:1020B00000F0FF03FF2BEBD1092000F0FDFEC4F878
:1020C000049001A800212422082306F0ADFD4FF062
:1020D000010A04F1240001AA8DF81CA0514605F064
:1020E0004FF9236833B300262546B34660350AFA14
:1020F00006F0074218D118EA000F04BF06F0FF01EE
:1021000041F4C04104D0A01990F8400059F82010C3
:102110001D4801F067FAF0B24FF0FF3105F0F6FF0D
:102120002368C5F800B001E004202860761C2D1D4E
:102130009E42DCD30AA800213022082306F038FD95
:10214000002010210AAB114A009004F1080004F0AD
:102150009FFA0F4951F80D0C20F4F85040F400504C
:1021600041F80D0C5746C1F8FF7F0A4E376017B093
:10217000BDE8F08FB43F0050401B002080120840A3
:102180006019002014270020007FC767A15A0000B3
:102190000D30094008000940F0B5ADF11C0D05F007
:1021A00007FC5B4F07F1300006F052FC41F2883229
:1021B00004235849F86007F17C0003F0B9FC03F0F0
:1021C0003FFB1F20062104F0E9FC01248DF80040AC
:1021D0000025ADF802508DF804400826ADF80660E1
:1021E0004FF47A70ADF808602146ADF80A506A469F
:1021F000ADF80C0040F20530FFF70EFB40F2063060
:1022000002210DF10202FFF707FB4FF442701E217D
:1022100007F15D02FFF700FB40F20730072107F1ED
:102220002002FFF7F9FA4FF44470214601AAFFF7A4
:10223000F3FA40F2113002210DF10602FFF7ECFA39
:1022400040F21230022102AAFFF7E6FA40F2133000
:1022500002210DF10A02FFF7DFFA4FF44570022167
:1022600003AAFFF7D9FA06F03DFC0620A02104F0EE
:1022700095FC0720A02104F091FC3046A02104F039
:102280008DFC0920A02104F089FC04958DF81440F0
:102290008DF815408DF816508DF817404FF4816079
:1022A000042104AA04F060FC4FF48060214605AAD2
:1022B00004F05AFC40F2024021460DF1150204F0F0
:1022C00053FC40F2034021460DF1160204F04CFC91
:1022D00040F2064021460DF1170204F045FC06F0DD
:1022E000F6FC06F048FD06F0D3F903F0E3FF06F034
:1022F000F7F907F13C0006F0ABFB386105F0CEFEC4
:1023000005F010F906F0DDFC06F0DEFC07B0F0BDCC
:10231000481B00201D8700002DE9F04F0C46B4F14A
:10232000FF3FADF13C0D1FD0F4B107940022CDF872
:1023300030D04A4B09922021ADF82820EFF31185C7
:102340000B9381F31188474A454912688918059112
:102350004A6806924B6805AF1F6005AE4E6085F374
:10236000118805AA022101E0002203213E4B0392BD
:102370004FF0200AEFF311881B688DF81010C31876
:102380008AF311884789002F54D1002C04BF88F3A9
:10239000118800205FD03549086902904FF0010E86
:1023A000C0F818D00A88A1F800E0046CD1F804C085
:1023B00046680568D0F80C90356045680668756019
:1023C000256800279346AC4208BF774602220024C6
:1023D00017B12CEA09054D600D69A84208BF4C6190
:1023E0000275586800930190C0F800D09DF8100065
:1023F000A1F808E00228C3F804D002D1039802F043
:10240000FBF888F31188584605F018FAEFF31183AA
:102410008AF31188039830B10168426811604168FD
:102420000068416003940298846183F311889DF8E9
:10243000100010E0039F4189491E418147B1384691
:102440000168426811604168006841600027039795
:1024500088F3118801200FB0BDE8F08FB173000040
:10246000F4290020409400004C94000050280020E3
:10247000B0B5456884684B48297BADF1180D01293A
:1024800016D0217C627C484B2F7E0143009143EAA9
:1024900002010191454937F0010718BF081CA27CD1
:1024A0001043029095F859000322FF2811D00DE047
:1024B000677C217C3843A37C019041F0004100916E
:1024C00043F000403A49029095F859000143042234
:1024D0000391FF204DF82200694605F15C0001F0F0
:1024E000B7FCA866002808BF002058D0287B3149D7
:1024F00051F82000012828D02068B0F1804F14BF87
:1025000022220A22217CA86E05F04EFB2068B0F141
:10251000804F14BF21220922617CA86E05F044FB84
:102520002068B0F1804F14BF24220C22A17CA86E39
:1025300005F03AFB95F85910FF292FD02068B0F12B
:10254000804F14BF23220B2225E02068B0F1804F7A
:1025500014BF21220922217CA86E05F025FB2068EA
:10256000B0F1804F14BF22220A22617CA86E05F0D0
:102570001BFB2068B0F1804F14BF24220C22A17CE9
:10258000A86E05F011FB2068B0F1804F14BF232224
:102590000B2295F85910A86E05F006FB012006B035
:1025A000B0BDC046000480A0004000800004C0A070
:1025B00000200080B48E00002DE9F04F0C46464903
:1025C0008A8BADF13C0D84460992487B0D90CE7804
:1025D00000964A8B0892888C0C900A8B488C079244
:1025E00091F80CE00B908E78CA7A088C0692CB8A10
:1025F0000A908A7A91F804A005924A7AC88B0492CC
:102600000A7A91F801800392CA798D8A02928A79B6
:10261000CF6A01924A79E146A9F54079B9F11D0FD7
:1026200010D8DFE809F0554F4D4B49474543403D31
:102630003B393634320F312F2D2B2A24211F1D0F09
:102640001A191816BCF1270F43DA604603F012FF7F
:1026500013E0DDF834E0F246D046CDF8148016E001
:102660000C980B900B980A900A98054620E044318C
:10267000086820608888A0802BE00990099808905D
:102680000898079007980690069B238021E00598FC
:1026900004900498039001E03E31E9E7039802902A
:1026A0000298009006E0019A89310DE06A310BE052
:1026B0002846E2E7009E0BE03831D9E7276008E0C2
:1026C0005A3100E04A311022204601F0DBFA00E0E6
:1026D00026700FB0BDE8F08FF41E00202DE9F04306
:1026E00004466668A5680F46ADF1540D06F066FA1B
:1026F00096F8A4102D1D012903D106F024FB00201B
:1027000075E04FF0010986F8A49006F01CFB1FB994
:102710000DA805F0F9FF0DAF4FF00008C6F8548082
:102720003869306178697061387E3076387B307313
:1027300038783070786886F87080706078694146C3
:10274000092828BF494686F85810687800F0B4FB7D
:10275000204602F03BFDE87B86F859002046FFF753
:1027600087FE50B9687800F049FD06F027FA86F830
:10277000A48006F0E8FA444638E001A84146302239
:10278000082306F015FA0694CDF80080194A297836
:1027900006F11C0001AB03F07BFF307878B901A88B
:1027A00041462422082306F03FFA8DF81C9006F1DA
:1027B0003800414601AA04F0E3FD0F4800E0B86884
:1027C000B06002F02FFDF066307B012805D1B06EBD
:1027D00006F0BEF9B06E00B18460084ACDF8008002
:1027E00006F190000421234603F092FB204615B029
:1027F000BDE8F083112A0000938C0000818B00005B
:102800002DE9F84F00298346009106DD0246009825
:102810000021401E42F8041BFBD10098DFF8D8A02D
:10282000DFF8DC900028CAF800B013DD3348009CC4
:102830000768002537F8020B40B1D9F80000AE0058
:1028400030580146002088474BF80600641E05F109
:102850000105EFD12B4851460127D0F80080CF80E9
:10286000B8F1000F22DD4FF0000A00980127002880
:1028700017DDABF104050446002655F8040FB0F14E
:10288000FF3F04D0D9F80010715888472860002114
:10289000B0F1FF3F08BF0121361D641E01EA0707A2
:1028A000EBD16FB90AF1010AC245DEDB16480068B8
:1028B00006F08FFA05A006F075F814480068804706
:1028C0000D4900200860BDE8F88FC0467864632E8B
:1028D00072756E74696D652E537461727475703A99
:1028E00020276D6178506173736573272065786365
:1028F000656564656400C0461C2500208C9400005A
:1029000090940000889400009C940000A094000023
:102910002DE9F04707467C68BE6806F04FF9083499
:10292000E16C002967D006F00EFA3168486820F0A3
:10293000020048603168486A20F003004862656E12
:10294000F068B168084369680968C1F8040531682E
:10295000486920F00100486130684FF00108C0F874
:1029600020803068B0F1804F14BF40F201104FF466
:102970008070234909688847384602F027FCE06CDC
:10298000D0F804A006F01AF91E4D8146287850B1FF
:102990001AF0704F02D1102004F086FA042004F0DF
:1029A00083FA00202870484606F0CDF9E16C087CD7
:1029B000042802D003200874E16CB268F068636EEA
:1029C0004546104305FA00F258680068C262306854
:1029D000B0F1804F14BF0C480C480E680068002509
:1029E0008204A6EB9250401E086038462268E564D7
:1029F0009047BDE8F08706F0A6F9BDE8F087C0462D
:102A000078000010411B0020080500203804002039
:102A10002DE9F0470646B1680A687468D069083441
:102A20001062400841D2606E40680268CD68D2F8FA
:102A30000405284206D00B68586A20F0020058624C
:102A4000C2F80455D2F804258868024256D00A68B4
:102A5000506A20F0010050628868616E4968096818
:102A6000C1F80405E06C00250574E76CD7F804A0F4
:102A700006F0A4F8DFF88880814698F8000050B18D
:102A80001AF0704F02D1102004F00EFA042004F066
:102A90000BFA40460570484606F055F92268E56491
:102AA000304639469047BDE8F0870A68506920F003
:102AB00001005061E76CF7B9506820F002005060E7
:102AC000506A20F0030050628B68C868616E4968E4
:102AD00009681843B2F1804FC1F804050CBF4FF4E8
:102AE000807040F20110074909688847304602F0BB
:102AF0006DFBBDE8F0873046FFF70AFFBDE8F087C1
:102B0000411B00207800001010B50A46002804BFC1
:102B100040F6FF70C0F20F0070D041F25030C5F2A5
:102B200000000068930CC0F38361C0F38F2063D270
:102B300042F30724002C28D542F307225342B2F176
:102B4000FF3F4FEA630315DA400805D1490806BF85
:102B50000121081C4FF6FF70400804F1010405D163
:102B6000490806BF0121081C4FF6FF705B1E04F1E7
:102B70000104E9D1520808D3400805D1490806BF2D
:102B80000121081C4FF6FF70641C002C34DD022C60
:102B90004FEA640204F001031DDB4FF6FF7C4000A6
:102BA00040F00100844507D2480040F001010F29A0
:102BB00092BF01200F216046400040F00100844593
:102BC00007D2480040F001010F2992BF01200F21D8
:102BD0006046521EE3D1002B0EDD40004FF6FF721F
:102BE00040F00100824207D2480040F001010F2965
:102BF00092BF01200F21101C40EA014010BD704718
:102C00002DE9F043ADF1140D00F09CFF384D4FF06D
:102C1000030908274FF6FF7800262C4605F068FACE
:102C200020BB009601A80DF106016A4604F01EFCC7
:102C3000E0B9BDF80400102814D1208ABDF80610B0
:102C400088420FD100980188884509D14088C00B7F
:102C500008D3042005F12C02014604F0BDF801E080
:102C600002F03AFE009808B105F01CFC608A4108A9
:102C70002CD320F001002379E178608253EA01022D
:102C800024D073B9E079237A8DF8080005F13E016C
:102C90008DF809300A680DF10A031A608988998055
:102CA00001E08DF80890607A8DF81000A37A8DF815
:102CB000113002A805F004FF38B1236B677023B10F
:102CC0001A6812B1196838468847608A810806D3A5
:102CD00020F002006082304601F0ECFD608AC108FD
:102CE0009CD320F00400608205F01EFA96E7C046EF
:102CF000F41E00202DE9F0430646ADF11C0D05F051
:102D00009FFF04F0A9FC4FF000090546CDF80090A4
:102D100005F03CFF30F0010002D00098A84202D13B
:102D20006FF0040059E070684C4658B1B0F1FF3FB5
:102D300005D001A904F034FA30B107464CE04FF059
:102D4000FF3000E02046019005F02CF901990127A1
:102D500001EB000800E0019368680199FFF7DCFAD5
:102D600000282ED003A803F04DFFD8B9BDF81000FD
:102D700002A903F02DFF88B9B368BDF80800BDF8BB
:102D80001210059A984748B1BDF81270F781BDF846
:102D90000800B081059B33614F4612E005996846F3
:102DA00004F018FC0198641CB0F1FF3FD4D0002857
:102DB000D2D005F0F7F8B8EB000302D001989842A2
:102DC000C9D2009905F1080004F0DEFD24B168685D
:102DD00001F05CFF641EFAD1384607B0BDE8F0830D
:102DE0002DE9F84F0F4606461446B169F2691D46B3
:102DF000204600F047FF04F10C0B6460291C20D032
:102E0000D1F80CA0D6F81C900A68DAF80050A9F1A5
:102E10000808521B904598BF4246204600F032FFFA
:102E2000646004EB0800C4F80090082DE060804660
:102E300028BF082551462A4600F024FF0820C8F87C
:102E40000000DBF80040241D17BB7569F068B2680C
:102E50000B9B294601F0A0FA071C2A4608BF002058
:102E600026D0002101F0DAFA124D286805F0B1FFF2
:102E700001467068386070684068786070684068C3
:102E8000076072682868576005F0A5FF083705E0FD
:102E9000726938460021083A01F0C0FA3068B0F192
:102EA000FF3F18BF3860306908B121683950384693
:102EB000BDE8F88F9C9400002DE9F0410546EFF342
:102EC0001188202080F311882B4A505D411C002876
:102ED000515549D1294CA900675C07F03F003F28B4
:102EE0000C4401D0FFF7E8FF607800F03F003F2876
:102EF00001D0FFF7E1FF668837F07F0019D1F809AC
:102F000011D24FF08054D4F8B801406901463046E0
:102F1000884704F5DC742068406B014630468847DA
:102F20000128F8D120E0164850F8261001208847E3
:102F30001AE04FF08054D4F8B801C0690146304619
:102F40008847D4F8B801406A014630468847D4F82B
:102F5000B801C06A0146304688470121094A0A483B
:102F6000116001688908FCD388F31188284604F0B1
:102F700083FDBDE8F081C04640240020EC8E0000B7
:102F800058240020282008602820084070B505F04B
:102F9000CDFD2B4C256805F00C000C284AD0E80824
:102FA00023D204F01FFC2749096881421DD226491B
:102FB000264A274D0B6812682968EFF31186B3FB88
:102FC000F2F26118801A2022886082F31188286842
:102FD000201801F011FB86F311880120FEF7F2F9A9
:102FE000296800206418A08225E0280922D2194807
:102FF000690939BF016821F00101016841F001014F
:1030000002460160D2F898004FF0805440F003006F
:10301000C2F89800D4F8B80180690146202088479A
:10302000D4F8B8010C4C806B2168804701202060E7
:10303000206800E030BF05F07FFD01F051FD70BD5C
:10304000A426002000940000049400004494000092
:10305000F09300008C2108402C2009401EF0040F42
:1030600014BFEFF3098169468869EFF3118102B457
:1030700000B5DFF8A4E0F047DFF8A8E0DEF80010C4
:1030800001EA0000CEF800005DF804EB1EF0080F26
:1030900003D101BC80F31188704704BC1EF0040FFB
:1030A00014BFEFF309816946A1F1200114BF81F338
:1030B00009888D461B4B1868086040F201101860A3
:1030C0004A604FF08070C86117488861704702B449
:1030D00001B4EFF3148100291CBF002282F314888D
:1030E00002B402B4DFF834E0F04701BC01BC0028B0
:1030F0001CBF022181F3148801BCDFF824E0F047F3
:1031000004484FF08051016001BC80F3118800BF7A
:1031100000BFC04604ED00E0214E0000AB8C000073
:10312000418D000020290020CF3000002DE9F04122
:103130001546AA690446A260686A1E46884608B910
:103140002A4800686062286A002806BF2848076885
:10315000071C05F03FFDEB69024693B9002A08BF42
:10316000381C03D0BF1850427F1E3840E061E1692F
:10317000606A334601F010F92062B0B90120BDE861
:10318000F081002A04BF2362381C0AD09B185042E9
:103190005B1E00EA03022262E969BF1AC919E161F4
:1031A0000840E0614FF0FF306062C4F82880286971
:1031B000E06268692063A86A6063A88D0128A0871F
:1031C00003D10D49C868401CC8602046314600F054
:1031D00009FD01460748007828B126B1F0680028AB
:1031E00018BFC81C00D10020BDE8F0816094000029
:1031F00064940000EB900000502800202DE9F0417D
:103200002021EFF3118881F311882C490A5C531EA9
:10321000012A0B544AD12A49820008461518865CB7
:103220006F8836F07F0019D1F00911D24FF0805429
:10323000D4F8B801806901463846884704F5DC7443
:103240002068406B0146384688470228F8D120E0C4
:103250001C4850F82710002088471AE04FF080548F
:10326000D4F8B801006A014638468847D4F8B80156
:10327000806A014638468847D4F8B801006B014699
:103280003846884701210B4A0B48116001688908BC
:10329000FCD306F03F003F2801D0FFF7AFFF68786E
:1032A00000F03F003F2801D0FFF7A8FF88F3118806
:1032B000BDE8F08128200860282008404024002034
:1032C000EC8E0000582400202DE9FF478146D9F8F4
:1032D000140088460C469A461546411E14EA01071A
:1032E0001CBF0444E41B411E0D4218BF051C2548A9
:1032F0000668304605F059FDD9F80C70014609F111
:103300000C0EB44677B16A1E786812EA070302EA27
:10331000070618BFEE1A3319834219D9BE463F6813
:10332000002FF1D1604605F042FD184918480968A0
:1033300000680091CDF80490134FCDF808803988CB
:10334000002240F2331304465046A047002016E006
:10335000001BF519831B3EB9864204BF3C687746C3
:1033600008D03868774602E07E6023B13868641977
:10337000206063603C60604605F019FD28460090BF
:10338000BDE8FF8734940000EE9300003094000005
:1033900070940000FEB5FEF7FFFE2F4C4FF6FF7550
:1033A000002604F097FE002833D1009601A80DF105
:1033B00006016A4604F043F830BBBDF8040001275B
:1033C000102811D16088BDF8061088420CD10098F1
:1033D00001888D4205D14088000905D303F008FA21
:1033E00002E005F02EFB0746009868B167B105F0D2
:1033F0004DF809E0E06804F095FD071C04D005F0E5
:1034000019FB384605F006F8E06805F052FB002885
:10341000F0D0A088C10804D320F00400A08005F0FB
:103420009DFB206905F045FB0028BAD1206905F015
:10343000EFFB0746387A012806D0022808D17889A0
:10344000F96800F033FA03E07889F96801F052FC7A
:10345000384604F0DFFFE4E7481B0020F8B58C464F
:1034600045688468DCF8007095F85810B8B2884058
:103470001FFA80FE2068B0F1804F14BF234B244B0D
:10348000DCF80820234832B995F858108E0081598D
:1034900005F1720207E095F858108E00811951F875
:1034A000081C7244521E99605A6021683A0143F622
:1034B000F077103A0831174019609A683A439A60D9
:1034C0002368B3F1804F14BF134A144ADCF804C0D8
:1034D000BCF1000F04BF8059A61D05D0801950F81B
:1034E000100C0EEB0C06761E906016605160906812
:1034F00007439760A168EE6EE06808437168096849
:103500008862586A40F003005862F8BD0005002048
:1035100030040020CC8E0000100500204004002064
:103520002DE9F8430C46064620687568B768002800
:1035300050D005F043FB696D21B105F004FC032078
:10354000207447E04FF0010884F810806C6505F0A6
:10355000FAFB95F8700030B195F859201F49A86E14
:10356000114304F0D1F83968486840F0020048601F
:1035700030462146FFF772FF3968486940F0010084
:103580004861676805F01AFB154C814620780128D0
:103590000AD017F0704F02D1102003F091FE0420E2
:1035A00003F08EFE84F80080484605F0CCFB2878B6
:1035B00030B9696805F138042046FEF7ADFE10B158
:1035C0004046BDE8F8833046FFF7A2F920460021C7
:1035D000FEF7A2FE0020BDE8F883C046000006808A
:1035E000411B0020F8B50D46EEB2290824BF26493C
:1035F0004D40264BB400195985EA01020240C2F33E
:10360000006C234A00EA05078143FF323A4000F488
:10361000E0270A43B7F5E02F01D1510E15D300F48E
:10362000E0215CEA010710D002F4E027B7F5A027FB
:1036300007D0B7F5803704BF22F4003242F4A0224D
:1036400003E022F4803242F4C0221A51114CC10D21
:1036500004D3A4F18001C5F380528A55000E11D322
:1036600005F0ACFA290E03D201210022B14002E09C
:103670000121B1400A46503423688B431A4322602B
:1036800005F061FBF8BDC046006000A000100840D6
:10369000007F077F8020024041F21C3010B5C5F248
:1036A00000000468B4F1FF3F08BF002405F040F8B3
:1036B00040F2844346F25C01002242F2082E0120CF
:1036C00040F2801CC4F26023C4F20C011A60C4F200
:1036D000043E0860C4F2283CCEF80000DCF800008C
:1036E00038B140F20010C4F2203000682046FDF7E7
:1036F000ADFC44F20402C4F203021068052142F258
:103700004803C2F20001C4F2030320F003000143A6
:10371000116019684FF0000EC0F2391E6FF35B4163
:103720004EEA01000421C4F2090118600868C0F3E0
:103730000130012809D10A684FF6FF70CFF6FC402E
:10374000104040F400320A60086010BD2DE9F041DD
:103750000E46294990461C4606AF8C46726808788A
:10376000BB8851783F881278002502EB012242F68F
:103770002321521A29D0521E052A18D9921F0CD083
:10378000263A34D1072F30D8C7F10700984298BFA6
:1037900083B2674407F1080121E0B84225DBC01B72
:1037A0009842D8BF83B22380DCF804000BE0F068B5
:1037B00004F0E6FF80B2B84217DBC01B9842D8BFC6
:1037C00083B22380F06839180AE0082F0DD8C7F1BA
:1037D0000800984298BF83B207EB0C010F31238099
:1037E00040461A4600F04EFA03E0072501E0258026
:1037F0000A252846BDE8F0816C2200202DE9F84F0B
:103800004FF02008EFF3118588F31188264CA0684B
:10381000012105F0CEFA4FF0010B4FF000090646EA
:1038200021686769A4F81CB02068A4F81E90791A72
:10383000321A8A42A6EB070630D385F311884D462B
:10384000EF195846394600F0C1FF761B0546B542D0
:10385000F6D9EFF3118A88F31188E08B012804D19F
:103860004846394600F0B2FF0546B5F1FF3F06D0A5
:10387000A069AD1BA84238BF051CEE1901E0A5697F
:103880007E19A068294605F098FA25616661A4F8BA
:1038900020B0A4F81C905546276001E0A4F81C90C5
:1038A00085F31188BDE8F88FF42900207CB50D461A
:1038B0000646284C6978287800EB0120ADF8000016
:1038C0006188BDF80000884215D1A06940F6FF73F9
:1038D00000EB0110034203D1000BC0B205F0FDF96B
:1038E000BDF80000A91C000104F0F0FE6088401C37
:1038F00081B2618007E004F0DFFE30464FF6FF71D1
:1039000001F052FB6188A08888421FD101F0FCFEC3
:10391000C8B104F07FF921780843207003F0AAFAB7
:1039200004F0DCFC78B12078410805D363693146A6
:10393000032000229847207810F0060F01D004F0F1
:10394000C1FF0020207004F0B7FE7CBD304601F0BE
:103950002BFB7CBD3C2500202DE9FC4780460878E8
:103960001E460AAF0192022830D0244D05F1140002
:10397000DFF88490D1F804A004681022494650462C
:1039800004F02FFA002718B9002C31D0012008E0EC
:1039900009F110015046102204F023FA28B93CB373
:1039A0000220019A4146A04722E009F12001504639
:1039B000102204F016FA90B9012E05D10198007872
:1039C000002818BFA87213D1802711E048684278F8
:1039D000007842F6021500EB0220854201D00A274A
:1039E00006E038880090019A404602F033F8074616
:1039F0003846BDE8FC87C0464C8F00003C250020BF
:103A0000FEB516460446254A2548089FD2696182BC
:103A1000006852F821201D4690420FD01C4A1D48D4
:103A2000126800680092194E0191002202923188BA
:103A30008F2304463846A0470120FEBD084602F009
:103A4000CDFAA66068696060286AB0F1FF3F08BFE0
:103A5000FF2020740026E660288B00280EBF311C52
:103A60000121E160A88C10B141F00200E060204625
:103A700000F058FF01460848007828B127B1F868DF
:103A8000002818BFC81C00D13046FEBDEA8F0000D8
:103A90000C94000070940000EB90000000290020BE
:103AA00020940000F0B520480127F84201D001F031
:103AB00039FF204D204F214EBD4206D203CD047860
:103AC000A4003459401CA047F6E71D48002800D048
:103AD0008047164D164FBD4202D210CDA047FAE7DF
:103AE000F0BD03251BE0416808300A1C2A400BD1B9
:103AF0001A1C2A40AB4305D0046804300C60043122
:103B0000043BF9D1131C05D0047801300C7001314D
:103B1000013BF9D1021C2A4001D0A84304300368BC
:103B2000002BE0D17047C046FFFFFFFF0000000000
:103B300000000000C89B0000009C00008C9B00005F
:103B4000815400002DE9F84303F046FF234D002483
:103B50006C704FF6FF70E88202F09EFE204E01234B
:103B600022462870314605F1A80001F0E1FF02234A
:103B7000224605F1CC00314601F0DAFF042322464B
:103B800005F1F000314601F0D3FF042705F14A08A2
:103B9000102240462146AF7000F040FC05F15A0962
:103BA00010224846214600F039FC05F12C0634600D
:103BB000EC7107202C72102168724246AC72022010
:103BC00003F0F0F8032010214A4603F0EBF83846E2
:103BD0003246014603F0E6F8BDE8F883F41E002003
:103BE0001D8500002DE9F0410F46224A2049064676
:103BF0003B4602F06BFD01461F480078316110B171
:103C00000FB1F86880BB1E4801250021B368026827
:103C100035751A48B161002B20D4B3680446B168E9
:103C2000A0692A469A40F26004F0ECFFEFF3118895
:103C3000202130642788258081F311880846EFF31E
:103C4000118180F31188304603F0CAFB81F311889B
:103C500088F31188384603F0F1FD05E0F160801823
:103C60003146306404F0C2FA0020BDE8F081C0465D
:103C70000982000095490000EB90000050280020C8
:103C800054940000002A4AD05FEA000C8B071CD134
:103C9000830722D1102A08D370B4103A78C978C0AB
:103CA000103AFBD270BC103238D0042A2CD3082A28
:103CB00005D30C2A24BF08C908C008C908C008C910
:103CC00008C092072AD0920F22E00B780370491C9B
:103CD000401C521E22D08B07F7D1C30714D1830793
:103CE000D8D0121F12D308C903801B0C4380001DBB
:103CF000121FF8D20AE008C903701B0A43701B0A9E
:103D000083701B0AC370001D121FF4D2121D05D050
:103D10000B780370491C401C521EF9D16046704755
:103D2000F8B52024EFF3118684F3118822491D4D44
:103D30000B680420B0FA80F0281A43F004031F3007
:103D400002780B60521C027086F31188EFF3118326
:103D500084F311880A680820B0FA80F042F0080263
:103D60002D1AE87F0A60401CE87783F311880E2043
:103D7000FFF7A2F80C480068C0F38150032814BF75
:103D80000020012009490A4A088017683FB9094CF8
:103D9000402020600123D36100204860F8BD01204D
:103DA000F8BDC04653240020B43F0050602A0020D4
:103DB00004800C402C500C40A426002070B5054611
:103DC00003F076FC41F62434C2F200046668034630
:103DD00003F091FB22699B1B4FF47A715943090C44
:103DE000801A48BF404240F6B83249198A4216D379
:103DF000062814DAA268E068824210D8216871B1FE
:103E0000801A44F24022C0F20F024243900C00EBB1
:103E10001240814212D90846C82811D312E043F655
:103E2000AC71C5F200014868400828BF4FF4FA6041
:103E30000DD209687D2001F0FF014843C82801D256
:103E4000C82070BDB0F57A6F88BF4FF47A6070BD3E
:103E50002DE9F843204D884606464FF0FF3105F125
:103E600024008146FEF758FA002000E0401CB8F11B
:103E7000000F0DD018F82010FF2909D02A688A42B7
:103E800004D905EB8101096E0029EFD000261CE062
:103E90000024346074600127B4600EE005EB8000FC
:103EA0000B787268066607FA03F0104370600A68C0
:103EB0000A49304603F012FC641CB8F1000F04D02C
:103EC00008EB84010878FF28E8D1484600F0DEFEC0
:103ED0003046BDE8F883C04660190020007FC76700
:103EE00022482DE9FE4F001D028880465FFA92F1BC
:103EF000100100F47042801A1FFA80FBB8F802002B
:103F0000C5B241185FFA81FA0021AA45019124DB6C
:103F1000AAEB0506761CA8420CBF04240024AA457F
:103F2000D8BFA34513DD284621466A4604F098FE13
:103F30000427E94619F8011B019803F061F97F1E77
:103F40000190F7D1241DA4B2B4F5805FE7DBB8F887
:103F500002006D1C761EEDB2DDD10198002103F048
:103F60004FF9002103F04CF9BDE8FE8F3C250020FD
:103F70002DE9F84F0D4607461446B969FA691E4601
:103F80002046FFF77FFE04F10C0B6460311C20D04B
:103F9000D1F80CA0D7F81C900A68DAF80080A9F1D3
:103FA0000806A2EB0802964298BF321C2046FFF793
:103FB00069FE6460A619E660C4F80090B8F1080FC5
:103FC00034BF4246082230465146FFF75BFE0820C8
:103FD00030607A69DBF8004028460021083A00F09A
:103FE0001DFA3868241DB0F1FF3F18BF28603869FA
:103FF00008B1216829502846BDE8F88F00B5401E59
:10400000ADF1140D14D0C01E0BD0401E0CD0401EBC
:1040100033D140F215306946FEF7CEFA04F09EFD2A
:104020002BE0174804F0AFFE142003F0E9FC24E075
:104030004FF4417002A9FEF7BFFA00218DF8041079
:104040009DF809308DF803109DF80A208DF8013095
:104050009DF808008DF802209DF80B108DF80000E7
:104060009DF80D308DF805109DF80C208DF8073067
:1040700068468DF8062004F0E5FB05B000BDC0469B
:10408000C41B002010B51A481A490078086820F0AF
:10409000030040F00100086002F0CCF802F0A0FF3D
:1040A0000021154C154821600068C06801460220B7
:1040B00088471349086820F001000860D4F8EC0F25
:1040C0002020EFF3118480F311880E4B0E481A68FC
:1040D0000421B1FA81F1401A42F00402C17F1A6052
:1040E000491CC17784F311884FF0FF3010BDC046E2
:1040F000401B00200440034040100940A001001074
:104100008C210840A42600205324002080B5071CE1
:1041100038D041F2783043F6AC72C5F20000C5F2F7
:10412000000200685168C0F3035EC0F3034C490805
:1041300018D211680A051EEB227E05D4BEF1100FBD
:1041400004DB4FF00F0E01E04FF0000E09041CEBF2
:10415000217C05D4BCF1100F04DB4FF00F0C01E003
:104160004FF0000C4CEA0E1C00F47F4100F0FF02FF
:10417000222F41EA0C4142EA010207D300F08040BD
:10418000104380BD43F62772C0F27102104680BD15
:10419000F8B5001D84B214F0030002D0241A241DC7
:1041A000A4B204F03FF801461948102C476801609A
:1041B000C8BF8768388800221646C30BDD0319D1B3
:1041C00026B984420ADD3A46012617E01388C3184F
:1041D0009BB29C42138011DC174618469FB1001B0E
:1041E00080B20428B4BF3C88385344F400443C8077
:1041F0003F1D08E080F40040002680B2C7193888CF
:104200000028DAD10027084604F016FA3846F8BD2F
:1042100028260020B0B50446A768ADF1280D27BBBD
:104220000C20FFF7B5FF071C16D06846002124229A
:10423000082304F0E1FC002306976A466168ADF8A4
:1042400010301448059302F0B3FB386038B904F01D
:10425000E8F9384603F092F96FF0030018E0E068DF
:1042600078602069B860A7600AE003F0DBFF0546CC
:10427000386804F071FD2069B860284604F0DCF964
:104280003868616804F09DFD386804F0F6F9002094
:104290000AB0B0BDF18A0000F8B50546EFF311870A
:1042A000202080F311881C4C20684FF0805640F08D
:1042B00080002060D6F88C014068014601208847C4
:1042C000D6F8B001006A014614208847286906F52F
:1042D000C675810C14BF010C04212868406A02468F
:1042E00001209047D6F8840100682321024600206F
:1042F00090472868C069014601208847206820F45B
:10430000C02040F480302060206840F00100206030
:1043100087F31188F8BDC046002009402DE9F0431D
:10432000ADF13C0D04F036FBDFF86880174C00253A
:104330000646684600213C22082304F07BFC58F81E
:10434000042F6068A768069023680897694605925D
:104350000F480493002201F0A7FE071C10D003F0C1
:1043600061FF8146384601F045FA48B1484604F0FD
:1043700063F9241D6D1CDCD0304603F05FFA01E0C8
:1043800001F0A6FD0FB0BDE8F083C046DC8D000053
:1043900095880000182600202DE9FE4307461A489C
:1043A00005781C46884600261DB114B1E36803B1A8
:1043B00001260AB915480268002F12BF381C0F48A1
:1043C0000068234604F060FC5FEA000913D11EB9BF
:1043D00015B10CB1E06870B90A490D480968006868
:1043E00000910197064ECDF80880318800223423D1
:1043F00005462046A8474846BDE8FE838094000055
:10440000B29400006C940000EB9000001025002096
:1044100070940000002213460A46194671B510F048
:10442000030F0BD0002A82BF00F8011BB2F101027A
:1044300010F0030FF6D1002A08BF71BD11F0FF0183
:1044400041EA0121042A18D341EA0141082A0FD385
:104450000E46102A08D30C460D46B2F10F0312F097
:104460000F0272C0103BFCD812F0080F18BF42C0F8
:1044700012F0040F18BF40F8041B12F0020F18BF0F
:1044800020F8021B12F0010F18BF017071BDFEE78A
:10449000FEB51C4D0C462D1FE968064604F0E2F9F6
:1044A00040082CD330460821002203F005FE0746C1
:1044B000019727B32A4602F11C000C21083204F0B0
:1044C000A5F908254089ADF80250ADF80000227822
:1044D0003A702188019809124170A1788170618831
:1044E000231D0912C1701968051D304629606946EF
:1044F00003F018FF18B168461B2103F01FFF04F0FA
:10450000DBF8FEBD4025002070B515468668426880
:10451000B1F1200002F10C0427D0401E21D0401E32
:104520001CD1906E15492A78114300F047FC90B9D0
:104530003068B0F1804F14BF23220B222978E06D40
:1045400003F032FBE06D94F84D1001F0B5F82878D7
:1045500084F84D0010E04FF0FF3070BD6FF00100A7
:1045600070BD002084F8640070BD2178002001290E
:1045700008BF012084F86400002070BD0020008086
:104580002DE9F041436900F10C0688461446374690
:10459000591E14EA01051CBF23445C1B154805681D
:1045A000284604F002FC01463868424601E007460E
:1045B000006808B18242FAD8106054603A6040B195
:1045C000A418A04205D103681360546843681B19FE
:1045D0005360BE4209D07B68DB199A4205D110684E
:1045E00038607B685068C0187860284604F0DFFBAC
:1045F000BDE8F08134940000F8B51C4C0746208CCF
:10460000002601281CD1A08BD0B9A068012104F09C
:10461000D0FB226861692368821AC91A91420FD3BC
:10462000BD6801224619FE606169BA82091AA94271
:104630001BD9A068294604F0C0FB25616661F8BD5E
:104640009EB92020EFF3118580F31188A0683146D0
:1046500004F0AFFB85F311880122B968BA824018D3
:10466000A18BF860012908BFE283F8BDF42900207E
:1046700070B50646F088F5680628A5F108052CDA1D
:10468000B088062829DA03F0CDFD154CF288910098
:104690000C3401EBC20161184968E1B103F0CCFFB1
:1046A00030792870B0796870307AA870F188880005
:1046B00000EBC1002018F1684068083002F08AFF62
:1046C000F188880000EBC10024186068406800F0A1
:1046D000DDFA002070BD03F0AFFF6FF0020070BD87
:1046E000502600201748F8B50068006801462020D1
:1046F0008847174C02250F2000214FF4C072072372
:104700002D3C206041F61D5060600F48009500F080
:1047100003FD10480126001F066001688908FCD3CC
:104720000A4F39882661012903D0314600202E46E0
:1047300003E0002101612846202100F09FFD7E60FA
:10474000F8BDC046A001001000A00C40602A002067
:1047500039400C4038600C40B0B51B48134A144C2B
:104760001449C06927681060136899420ED06FB170
:10477000114B1B6800240F2C2CBF1D1C0D68091D3C
:10478000641C05607F1E00F10400F4D10C495068E0
:104790000A4F0B68202520F47F4000EB03203918D6
:1047A0005160084C95762068D060B0BD08ED00E0FF
:1047B0001094000010100000209400000000FA0582
:1047C0002494000018940000002900202DE9F047EF
:1047D00080461948194B02689C580D464FF0FF3728
:1047E0004FF0000A02EB030920E004F10C062468F4
:1047F000308901281AD1B8F1010F0FD130688542F4
:104800000CD17068002808BFA6F808A002D0316853
:1048100040183060F06801463069884730890128C7
:1048200004D13068401B874288BF071CA145DCD1FA
:104830003846BDE8F087C04640940000F4290020C7
:1048400041F2A00108B5C5F20001D1F878020B6869
:10485000020F03F0FF03802B28BF002302F069F949
:104860004FF0FF3188B1401E05D0401E1FD1F2B974
:104870000A3358B208BD101C02D0801E02D016E0C8
:104880000A2008BD143358B208BD1046401E0DD092
:10489000801E04D0001F04D0401E04D007E0142066
:1048A00008BD152008BD163358B208BD0A210846B8
:1048B00008BD7047FEB51A4C0546F03C208C218B94
:1048C00081420CDC618B814209DBA08B618C8842C8
:1048D00005D1E08BA18C884208BF18271DD0052088
:1048E00001F0C8FD278B638BADF80270A28BADF889
:1048F0000430E18BADF806200646ADF80810E08ADA
:10490000ADF80000684604F0E7F8071C05D1A57370
:1049100004F1F000314601F087FF3846FEBDC04685
:10492000E41F002038B504461749E268B4F91200C4
:10493000920809D3227C202A06D34B6A8200134DA9
:10494000D450C969555007E0A268C96941F82020D0
:10495000B4F91210494261820D4A237C102802EBFF
:10496000000101F57C7105D2042824BF024482F8BD
:10497000143D00E00B70E168490801D301F050FBE1
:104980000020E06038BDC046002900205D300000F6
:1049900000E000E01A482DE9F04101880469012691
:1049A0002022EFF311878846068082F31188D4F81D
:1049B0000CC0D0F804E0226C6568236821462B60A7
:1049C0004B680D686B6013689A4204BF2EEA0C02B4
:1049D00042600269914204BF0022426106810222C4
:1049E0000A7503202075084602F01AF887F311882B
:1049F00064604046246002F021FFBDE8F081C046BB
:104A0000502800202DE9FC4117460E4605464FF080
:104A1000020800F03BFF50BB02F00AFC38BB05F077
:104A2000FF04C4F58074B44288BF341C8DF8008044
:104A30008DF80350280C8DF80100280A8DF802002B
:104A400003F058FF6846042102F08AFE361B651900
:104A500020B93846214602F083FE18B103F042FF28
:104A6000BDE8FC8103F03EFFE719002ED1D1BDE87F
:104A7000FC81704738B50079184CA0B903F0D2FB1F
:104A80002178002904BF6FF00704051C13D0491ECC
:104A9000C9B2217029B903F0CFFD606801F0F8FFB9
:104AA00018E0054613E003F0BDFB05462078FF281B
:104AB00005D16FF00604284603F0BEFD0BE0401C54
:104AC000C0B20128207002D1606801F0FCFF2846C6
:104AD00003F0B2FD0024204638BDC046B42A0020B1
:104AE00045F2280080B5C4F2090007686FB343F6A9
:104AF000AC70C5F20000826802EA5201C90E24D2ED
:104B00004168890821D20021C4F20901D1F800C00E
:104B100000681CF0050F4FEA104000F0F00000F5AF
:104B2000E0700CD1B84210D2100F38BF4CF0010C1D
:104B3000D00E38BF4CF0040CC1F800C080BDB842A4
:104B400084BF2CF0050CC1F800C080BD38B504202E
:104B500002F0CEFF022817D0032815D0114B1349BD
:104B60001448114C1A68096820258218B4FBF1F129
:104B7000EFF31184916085F3118819684018FFF7ED
:104B80003BFD84F3118838BD0320009008480021C4
:104B90004FF040521C2300F0BFFA042002F084F9C9
:104BA00038BDC046F4930000A08601004494000084
:104BB00000A00C40A42600202DE9F041054615F880
:104BC000017B90460E461CE0B8F1000F05F101058F
:104BD0000BD0FF2C09D8022015F8011B401E41EA1A
:104BE0000424F9D101E0042C02D315F8011B00E0E4
:104BF000394630462246FFF711FCA61901E006F8B7
:104C0000010B15F8010B8742F9D115F8014B002C67
:104C1000E9D115F8010B2C7800022418D4D1BDE895
:104C2000F081FEE71FB5044602F0FEFE50B31648C1
:104C300010300078022804D0032818BF4FF4F02069
:104C400001D14FF4F22010216A4601F053FB02F02B
:104C5000CFFFBDF806006080BDF80400FF2808BF44
:104C6000002002A920800968201D0160FF219DF815
:104C70000C30E1729DF80E206372BDF80C00A27238
:104C80000012207200901FBD942A0020B0B520228F
:104C9000EFF3118182F31188144A126883181C689B
:104CA0008218A24217D01248012402880480186892
:104CB00005681D606B6008300472476814460FB1C8
:104CC0000022BA82006802F08BFB81F31188204633
:104CD00002F0B4FDB0BD027A52083ABF4289521CBC
:104CE0000122428181F31188B0BDC0464C9400007E
:104CF00050280020FEB5074604F041F80E46002873
:104D00000CBF00240424084601F0B4FA6846FFF7FB
:104D100089FFA0190F4BC2788178002501EB022191
:104D20005D8089109980694601F0D4FFA41920B9EB
:104D300038466946FFF7ACFBFEBD204603F06CFE2B
:104D40009861000BD88003F0B5FD3846294600F085
:104D50002BF9FEBD3C25002010B5012002F0C8FE55
:104D6000012829D04AF20000342101220023C4F294
:104D70000C0001F021F8002808BF00201DD0802081
:104D8000C1F200000068804702F092FC41F6243333
:104D900044F24022C2F20003C0F20F029C6819687C
:104DA000D860041BA1EB91016243120C8A4224BF1C
:104DB0001A60012001D21960012010BD2DE9F041D7
:104DC000071C0E4604D0144C2068F5B2A84202D845
:104DD0000220BDE8F08104F124004FF0FF3180464D
:104DE000FDF79AFA04EB85046034206860B97968AD
:104DF0000120A840276032460843084978603846B9
:104E000002F06CFC002400E001244046FFF73EFF66
:104E10002046BDE8F081C04660190020007FC767CA
:104E20002DE9F041202484F3118811490122114B0E
:104E30000E88114D0A8011491F881A80104A09688E
:104E4000536A01F0FF012A7D53F821309046D86063
:104E50000021297581F311889868014658688847B0
:104E600084F3118885F8148007EB0620BDE8F081F3
:104E700050280020E4240020202A002004ED00E037
:104E80000029002098B541F23403C4F209031868E0
:104E90000004070C26D002F02EFB41F63832C2F295
:104EA000000292F90710814205DD10F1800FB8BFB2
:104EB0006FF07F00D0719188B94212D81468D3F88E
:104EC000D40F001B801C1F2888BF1F207F1A40089A
:104ED000C7404FF6FF70C919884238BF011C918046
:104EE00098BD978098BDFEE738B503F067FE154C76
:104EF0000546A01D008840B9FEF712FF04461020A9
:104F000002F0C6F9012C0DD017E0FFF725FF60B1C4
:104F10000020E080FEF704FF0446102002F0B8F9FC
:104F2000012C0AD1FFF7DEFB07E0303405212046D3
:104F300003F047FF204603F0A0FB284603F003FFE1
:104F400038BDC046A426002030B52025ADF1540D53
:104F500085F31188134C241D01E001F083F82068CB
:104F60000028FAD022686169F820B2FA82F2A0EB38
:104F7000C200091821610868094AE0600221117520
:104F80000020A08080F3118885F3118803F016FCBF
:104F9000E16804A8103103F0D5FC15B030BDC0465F
:104FA000202A002050280020FEB5154D0C46296906
:104FB000064603F057FC400821D330460221002268
:104FC00003F07AF807460197CFB12A4602F11C0098
:104FD0000C21093203F01AFC02254089ADF8025079
:104FE000ADF800003C700199221230464A706946C3
:104FF00003F098F918B168461B2103F09FF9FEBD34
:105000003C25002098B5044620208DF8000004F6C9
:10501000FF706FF30B04001B00F6FF70000B1ED037
:10502000074600F033FCD0B902F002F9B8B9200C01
:105030008DF801008DF80340200A8DF8020003F07E
:1050400059FC6846042102F08BFB10B103F04AFCC6
:1050500098BD03F047FC04F580547F1EE1D198BD54
:105060002DE9F047134F0021134C426AD7F80C90FA
:1050700081830125F860836A3980D7F808A0BA6077
:10508000267D2575D7F810803B61026A426281F364
:10509000118882680169C0689047202080F31188D8
:1050A0003D802675C7F81080C7F80C90C7F808A097
:1050B000BDE8F087E4240020202A0020B0B503F0EA
:1050C0006EFE002808BF00201FD010480468002C86
:1050D0000ADD00250020294603F054FC0021FEF7DC
:1050E00081FD6D1C641EF5D10948006858B1094C5A
:1050F00007460025206B50F825000021FEF772FDC1
:105100006D1C7F1EF6D14FF0FF30B0BD58940000EB
:1051100068940000502800202DE9F041984600EBEB
:1051200041001646B8F1100F06AF00F5007404D325
:10513000A8F1100800F50174360C3D8803F0F6FC68
:1051400005FA08F545EA06450021002808BF0121B7
:1051500048F20002C4F20C02106810B9106800286E
:10516000FAD025600120106009B103F0E5FCBDE82C
:10517000F0817047B0B5044603F062FD00F03AFBE1
:10518000054603F04FF80146A2880F48002324305B
:1051900030F80C7F5FB902804560A381A26882600D
:1051A000686820610024084603F046FA09E0974247
:1051B00008BF6FF00204F6D05B1C062BE8D300F0AA
:1051C00087FE2046B0BDC0462C2600207FB58668ED
:1051D00031684568486820F00200486031684869D5
:1051E00020F00F00486130680321016202A803F03B
:1051F00089FB0B4800680468286900906869074BC0
:105200000190297E03EB81010A6A297B306853F8FB
:1052100021300399A04700907FBDC046B48E0000A6
:10522000C4010010F0B5144C241F65686879ADF115
:10523000340DFDF741FE03F0C1FC266807463078C7
:1052400090B901A800213022082303F0B1FC069494
:1052500000200090074A297901AB301D01F018FAAF
:105260000120307002F04EFE384603F06CFD2046FF
:105270000DB0F0BD7F8C000098930000F8B5124D82
:10528000124C0322002645F8392C0F46266021686F
:105290008908FCD280B200900D4831466022052377
:1052A000FFF73AFF0121216020688008FCD345F810
:1052B000217C45F8396C0820C5F8FF0FC5F8F30FBD
:1052C00045F8391CF8BDC04639400C4038600C40E8
:1052D00000A00C40F8B528BB134C676807B36169A0
:1052E0002569B7FA87F0F826A6EBC000091805E093
:1052F0006169B0FA80F0A6EBC00009188D420FD2A8
:10530000086802680A6051600A68914203D18269A4
:10531000616891436160FFF7A3FE60680028E7D1F0
:1053200000202080F8BDC046E424002070B5134C56
:1053300022692020EFF3118580F311886368616989
:10534000F820B3FA83F3A0EBC30009188A4204D310
:105350000020208085F3118870BD0948012106884E
:105360000180054802F07BFE0020208085F3118833
:10537000304602F063FA70BDBD590000E4240020FD
:10538000502800202DE9FC410446A16860686E4663
:105390000025086003F09EFC46F8040F002808BFB3
:1053A0006FF0030012D06D1CF4D0094E002701AD40
:1053B000B846CDF8008055F8040B16F8011B054AD5
:1053C000A36800F0A5FD7F1CF3D04046BDE8FC813A
:1053D000E98F00003F710000B0B5044603F0D6FB32
:1053E00030F0010008BF6FF004041BD003F028FC6C
:1053F000054602F017FF0C4A062132F80C7F6FB108
:10540000A388BB4208D1526812680021954208BFA8
:105410000121A160002403E0491EEED14FF0FF34CA
:1054200003F00AF92046B0BD50260020B0B58260D6
:1054300000245A698161EFF31185026199698482C0
:105440002022C16182F311880B4C0C492468091990
:1054500001604C6844604C682060486085F31188A6
:105460001F8A3FB1EFF3118482F31188FFF7C4F86C
:1054700084F31188B0BDC04640940000F429002098
:10548000134938B5091D0888D0B90E4D01200024F4
:1054900008800AE0686850F824008047641C0CE02B
:1054A000686850F824008047641C2868A042F7DC34
:1054B000054800688047054D00242868A042E9DCC3
:1054C00038BDC046D893000084940000E0930000EB
:1054D0001C250020DCB5044603F0B2FB02F0BCF84A
:1054E000064603F053FB30F0010014BF002E6FF0AE
:1054F000040017D0606858B1B0F1FF3F05D069468D
:1055000001F04EFE30B107460BE04FF0FF3000E0F7
:105510000020009070680099FCF7FEFE002700B99B
:1055200001273846DCBD70B504464AF200060D4638
:105530006008ADF1080DC4F20C0607D3A8B2002133
:10554000009001220B463046FFF7E6FDA00807D386
:10555000A8B200900021022201233046FFF7DCFDB3
:10556000E00807D3A8B2009000210C2202233046A5
:10557000FFF7D2FD02B070BDF8B5124C267CA578BD
:10558000182002F06FFC071C19D00421002203F040
:1055900001F9304602F0E4FA38727D720020B872E8
:1055A00004F14A06FE6004F15A033B6104F12C0247
:1055B0007A6102F067FC024A394601F02DF8F8BD25
:1055C000FF8C0000F41E00202DE9F0410446114834
:1055D0000F3090F8008016460D46102002F042FC75
:1055E000071C12D00421072203F0D4F8404602F031
:1055F000B7FA38727C72BD72FE6002F043FC044A56
:10560000394601F009F8BDE8F0810420BDE8F081D9
:10561000298D0000F51E0020B0B5054603F010FBF3
:10562000044603F0B3FA30F0010008BF6FF0040441
:1056300016D002F0F7FD01460A48002230F80C7F30
:105640004FB143681B689C4204BFAA80002404D069
:10565000521C062AF2D36FF00404084602F0ECFF55
:105660002046B0BD50260020F8B5044603F0E8FA05
:1056700000F0C0F8071C19D002F0D4FD84460D4894
:105680000021243030F80C6F6EB94FF6F8720280AA
:105690004760A180002585607868A060604602F0C0
:1056A000CBFF2846F8BD491C0629EBD300F010FCBF
:1056B000F8BDC0462C26002010B50C46F0B141685C
:1056C0000122A240114219D0914341600D480022AD
:1056D000231800EB84010A6603F140010978FF29D1
:1056E0001ABF406850F8211044F020410448FDF7EB
:1056F00079FF20464FF0FF3102F008FD10BDC04693
:10570000007FC7676019002008B5684603F0CAF833
:10571000BDF800004FF6FF71814202D0BDF80000D5
:1057200008B9002008BDFEF7DBFBBDF800200146EC
:105730000020ADF802108A4208BF012050B168462F
:1057400003F000FABDF80220BDF8001000209142DD
:1057500008BF0120C0B208BD38B544688568E06E56
:1057600002F097F8A06E02F05CFC2968486820F00F
:105770000200486004F11C0003F00FFB6879FDF79C
:105780003DFD207818B904F1380003F01EFB04F148
:10579000900002F0E5FC03F011FA002184F8A41057
:1057A00003F0D1FA38BDFEE710B5114C6078062839
:1057B0001CD1208B062819DBB0F5486F16DA608BF8
:1057C000062813DBB0F5486F10DAA08BB0F5FA7F2E
:1057D0000CDAE08B0A2809DBB0F5486F06DA012005
:1057E000FFF768F804F1CC0003F0CDFA10BDC04615
:1057F000F41E00202DE9F843804602F013FD0F4C03
:1058000003250026814654F80C7F5FB93046C4F862
:1058100000800146A6600A4601F0C8FB606018B926
:1058200000F056FB474501D1264601E06D1EEAD146
:10583000484602F001FF3046BDE8F8832C260020E0
:1058400038B5104CA06818B102F0EBFB0020A06046
:10585000606890B904F12805284602F055FF0A480F
:10586000A063002084F82800294684F8340002F060
:1058700049FE606008B9FFF78DF82078401C207061
:1058800038BDC046BC27002040420F0011481CB55F
:1058900000788DF8010003F02DF802F053FF03F0BB
:1058A00021F803F027F80DF10100012101F058FF64
:1058B0006846012101F03EFF044603F013F8002C76
:1058C00018BF6FF0010004D19DF800004008E8D235
:1058D00000201CBDC093000010B50178A23902D091
:1058E0002E391AD010BD4179132918D100890C4CDA
:1058F00001280AD12046F038817B022905D1F030F9
:1059000003F041FA02F002FD10BD052000F0B2FDE7
:105910000146204600F088FF10BDFBF769FE10BD70
:10592000E41F0020F8B506460F4D104F7388002481
:1059300017E0A00000EBC400321851689068D268EC
:1059400052B9AF420BD00A7855F822200346491CC1
:1059500008461946904701E0FEF794F97388641CE5
:10596000A4B2A342E5DCF8BD8C9B0000989B00002C
:1059700040F8043D40F8042D40F8041D019940F81A
:10598000041D009940F8041D0B4940F8041D81EAEC
:105990000101A1F1010140F8041D40F8041D40F887
:1059A000041D40F8041D40F8041D40F8041D40F893
:1059B000041D40F8041D704735890000114870B57A
:1059C000041D416905692268F826B2FA82F0A6EB47
:1059D000C0000918086802680A6051600A689142AC
:1059E00003D18269216891432160FFF739FB206868
:1059F00038B12169B0FA80F0A6EBC00009188D42D9
:105A0000E8D370BDE424002070B5114C0026F825C1
:105A1000241DA68001E000F025FB20680028FAD0B4
:105A2000226861692069B2FA82F2A5EBC202891884
:105A3000884208D20A68E068216102F11001E26040
:105A4000103002F07FFFA0880028E2D170BDC04670
:105A500050280020F8B506AF3F880D460646E7B946
:105A6000022B18D15078147804EB002434F0010094
:105A70000FD1E9680968304602F0F4FE844208BF9D
:105A800000200BD0E96809683046224601F040FF4B
:105A9000F8BD8020F8BD0D20F8BD0B20F8BDFEE755
:105AA00008B50D480D4B006890FAA0F0B0FA80F1EF
:105AB000012000FA01F21A60094A106009480268E0
:105AC0008A4207D900EB8100006E18B102680AB162
:105AD000C9B2904708BDC046E0200240E020026005
:105AE00080E200E0601900202DE9F8430546904669
:105AF0000E46222002F0D6F90C4CD4F80890071C70
:105B000011D03D7207F110007E8141461222F860EB
:105B100007F11000FEF7B6F84846394603F07EF864
:105B20002068FFF7B3F8BDE8F883C046501B00209B
:105B3000F0B50D4614461F460646ADF1240D002172
:105B400024220823684603F057F800200590ADF89A
:105B5000100008484FF47A71A2B26B4600680697AD
:105B6000B1FBF0F080B229464243304601F004FA1E
:105B700009B0F0BD4494000010481CB500680090C6
:105B800002F0B8FE0421684601F0EAFD18B102F007
:105B9000A9FE00201CBD01A8022101F0CBFD044696
:105BA00002F0A0FE002CF4D19DF80400EF28F0D103
:105BB0009DF805001228ECD101201CBDC293000005
:105BC0002DE9F04104460F48E038057890460E462E
:105BD000102002F047F9071C10D03246042102F0D1
:105BE000D9FD284601F0BCFF3872FC6002F04AF98A
:105BF0003946424600F010FDBDE8F0810420BDE8C2
:105C0000F081C046E41F00202DE9F04104461E4605
:105C100090460D46142002F025F9071C13D0324699
:105C2000032102F0B7FD3C81002038744046FD603E
:105C300001F096FF787402F025F9044A394600F025
:105C4000EBFCBDE8F0810420BDE8F0818D8200000E
:105C5000B0B5202080F311880D4B0E484FF0FF3473
:105C60001F68426981690460002F22F00702114415
:105C7000A1F10801016109DD00250020294602F09B
:105C800093FDFEF74FFE6D1C7F1EF6D12046B0BD82
:105C9000149400000029002000B5EFF3038212F0F5
:105CA000FF0F0DD06A46A2F1200282F309886FF03F
:105CB000020E10604FF08071D16108499161704708
:105CC0005DF804EB694681F3098880F308884FF09A
:105CD0000200EFF3148180F314887047C15C000068
:105CE000F0B506461D460F462C201346ADF1340D87
:105CF0000021009002AA0B480195FDF771F8041CE1
:105D00000CD0009531463A4602AB01F01BF928460B
:105D100002F064FC002808BF201C00D000200DB059
:105D2000F0BDC04644920000104AF8B506460D4644
:105D3000002331696B601046AB600468296020461F
:105D400003F033F8F768014667B16868AA687B68B2
:105D5000181868607B68934284BF1A1CAA603F6869
:105D6000002FF4D1204603F022F8F8BD349400004F
:105D700098B52021EFF3118481F31188878BAFB997
:105D800001230C4A8383816A178813804B68016062
:105D9000436018600B1D1860536880691843506099
:105DA00084F3118827B9FFF7C1FA98BD84F31188ED
:105DB00098BDC046E424002070B51E460C18154658
:105DC000102E02D3103EA41C2D0C02F0AFFE0021B9
:105DD000002808BF012148F20002C4F20C0210683A
:105DE00010B910680028FAD024880120106009B189
:105DF00002F0A2FE05EA0400304180B270BD2DE938
:105E0000F8431D46D1F80C900B68D9F8007016467F
:105E10000446A6EB05084246DB1B9A4288BF1A1CC3
:105E2000FDF730FF26606460BD4204EB0806E660C3
:105E30008CBF3A1C2A1C30464946FDF723FF3560CB
:105E4000BDE8F8830F48B0B5047CC58A0E2002F087
:105E500009F8071C11D004210A2202F09BFC2046FD
:105E600001F07EFE38727D811320387302F00AF84B
:105E7000034A394600F0D0FBB0BD0420B0BDC04697
:105E8000238D0000F41E00200C4885460C488544F4
:105E90006F4607208743BD460A486F4607600A4899
:105EA000002803D07946491D8E460047FDF7FAFDCC
:105EB00002F040FB02F09EFBFEE7C046E43F0020FC
:105EC00000040000042800209936000000BF70473D
:105ED00008B5FFF7FBFFFEE738B50546094800683F
:105EE0008047094C201D006810B1014628468847AC
:105EF000206800B18047054800688047FFF7E8FF49
:105F000038BDC046BC2A0020C42A0020C02A002078
:105F100080B50028174614BF002F032014D08160DD
:105F20000361C7602021EFF3118381F31188084AD0
:105F300006491268891801604A6842604A68106020
:105F4000486083F31188002080BDC046A42600204D
:105F5000F893000038B50F4C2C34A4F12C010868DC
:105F600020F00100086054F82C1C4FF0805541F0DF
:105F7000800144F82C1C01202060D5F88C11226887
:105F800049688847D5F8B001006A0146142088475F
:105F9000206838BD002009400146B0B530201446C5
:105FA000ADF1380D139D009002AA0B480195FCF746
:105FB00017FF071C0CD000952168626802ABFDF743
:105FC0001FFD284602F00AFB002808BF381C00D03D
:105FD00000200EB0B0BDC046E49100000F4910286B
:105FE0000BD20F2818BF002016D108690A6922F0C9
:105FF000020200F002000A610EE01038C20822F02E
:1060000003028918D1F8003100F01F0001228240FC
:10601000C1F8802102EA030000BF704700E000E001
:106020000F4910280BD20F2818BF002016D108697D
:106030000A6942F0020200F002000A610EE0103824
:10604000C20822F003028918D1F8003100F01F00C5
:1060500001228240C1F8002102EA030000BF70471C
:1060600000E000E008B50E480E49006881420ED0FD
:1060700058B9002080F31188009002E00098401C7D
:10608000009000980028F9D006E0804704E0002046
:1060900080F3118801F096FF202080F3118808BD5D
:1060A0005C940000C57F000070B506460B4615469F
:1060B0003C20ADF1480D0021009002AA0A4801954C
:1060C000FCF78EFE041C0BD0314602AA2B46FDF7CE
:1060D0002DF8284602F082FA002808BF201C00D0C4
:1060E000002012B070BDC046E492000070B50646B4
:1060F0000E480468204602F06CFE0146094A0A4830
:1061000055680068A842D8BF002506DD10685368AE
:1061100040F8256001255B1C5360204602F05BFEC1
:10612000284670BD24250020A89400009C940000FF
:1061300098B504462420FEF72BF8071C14D0002144
:106140002422082302F070FD2079012804BF0120D9
:106150003876A0683946002200F028FFE060384613
:1061600001F00CFAE06810B96FF0030098BD002050
:1061700098BDD0B504463C20FEF70AF8071C14D0A1
:1061800000213C22082302F055FD207AB861608985
:106190003862E0683861606839460022FFF784FFA2
:1061A0000646384601F0EAF916B96FF00300D0BD93
:1061B0000020D0BD00B500213C220823ADF13C0DEC
:1061C000684602F037FD094800F5B27107914FF4B7
:1061D0000271089103210691054900236A4600F5E2
:1061E0008A7000F001FC0FB000BDC046F41E002014
:1061F000012C0000F8B506460C4800684488057973
:10620000102001F02FFE071C0DD00221152202F0F4
:1062100049FC3C81BD72FE6001F034FE044A3946FF
:1062200000F0FAF9F8BD0420F8BDC0465C1B002060
:10623000898A000010B54FF08054D4F8900181682D
:106240000120884741F21401C4F20901086880095D
:1062500002D208688009FCD3D4F8A001016840206C
:10626000884704F5D0742068816840208847112849
:10627000F9D110BD427801780D4B01EB0221598014
:106280008178C27801EB02219980017B427B01EB8E
:106290000221021DD9811188D980C188121D19815E
:1062A000126803F10A010A60807B18747047C046C7
:1062B000942A002010B501F077F90C4CE06098B1F9
:1062C00001F072F9206160B1E06801F09BFD206986
:1062D00001F098FD064A04F11C000C2100F0E8F8DA
:1062E00010BDE06802F0AEF810BDC0463C250020AD
:1062F000408F00007CB516460D460446FFF7C6FAEF
:10630000B8B903208DF800008DF80340230C8DF8F8
:106310000130200A8DF8020002F0ECFA68460421F0
:1063200001F01EFA18B93046294601F003FA02F0CE
:10633000D9FA7CBD012810B515D1012001F0D8FB98
:10634000012812D001F088FF094C0120E080303490
:10635000204602F001FD0521204602F032FD2046D4
:1063600002F08BF901E000F03BFE002010BDC046BA
:10637000A4260020B0B504460D48026840680F46C8
:1063800000211200401841EB020104F128020CCA5E
:10639000FBF760FC05460B4647B104F1280003C833
:1063A0002A4602F0D3F8303484E803002846B0BD12
:1063B00008200940B0B50F4601460D4883694B607F
:1063C00044698C60257800222046BE2D18BF01222A
:1063D0004FB1BE2D07D110F8015BBE2DFBD0401E82
:1063E000001B1B1A00E000230B601046B0BDC04626
:1063F000002900200E4A98B50B461C691268014618
:10640000A24238BF221C4A61586988609B69571EA6
:10641000074003D0D41B20181B1B8860B3FBF2F38A
:106420005A430A61002707600A694260C86098BD44
:106430003C9400002DE9F0410446984616460D466E
:106440000E2001F00FFD071C10D0812038700123B1
:10645000FB70BC803D817E81A7F80C8001F012FDAD
:10646000069A394600F0D8F8BDE8F0810420BDE86E
:10647000F08100003EB505460020ADF804000A207A
:1064800001F0F0FC041C0DD00421312202F082F94D
:10649000258101F0F7FC01A90223044A009121465D
:1064A00000F0D8F8BDF804003EBDC0460B8D0000DA
:1064B000F8B5044616460D46142001F0D3FC071C1F
:1064C0000FD00421022202F0EDFABC60BD81102041
:1064D000B8733E6101F0D6FC034A394600F09CF8DF
:1064E000F8BD0420F8BDC0466D8A000070B50446B2
:1064F000606810F07F4F18BF6FF0020011D101F0FB
:1065000091FE084D0646287828B1686800F0C0FA68
:10651000606800F0D8FA60686860304602F08CF875
:10652000002070BDB42A0020014638B50A480C4B43
:1065300050F8212009481C6810400122084302FA43
:1065400001F5254218BF40F480008A40196D0A42C7
:1065500018BF40F4000038BD00100840007F077FDE
:1065600080200240F8B50746BD68686800F1540411
:1065700090F8590001F0BAFF61790646384601F0FB
:10658000C3F8064800EA0601884205D121680420C4
:1065900008742846FCF7BCF9F8BDC0460000068028
:1065A00000B500213C220823ADF13C0D684602F005
:1065B00041FB084800F1F00107914FF42F71089159
:1065C00001210691044900236A46A03000F00CFA2C
:1065D0000FB000BD481B002095330000B0B5044645
:1065E0000D46102001F03EFC071C10D0214606226B
:1065F00002F058FA0020388115247C81054AFA609F
:1066000001F040FC39462A4600F006F8B0BD0420EF
:10661000B0BDC046901B00201CB51446CA78012AA4
:1066200002D18A880A4B1A8001F02CF830B9002078
:1066300000906946204601F021FD18B101F082FD6D
:10664000044603E00098447801F008FF20461CBD92
:10665000A82A002038B51C46154601F013F8B0B939
:10666000002000906946284601F008FD78B900999D
:10667000487848B90846C1798C4205D1014604984A
:1066800089682246FDF7FEFA009801F0E7FE38BD62
:10669000F0B505460F4616463020ADF13C0D2946B3
:1066A000149C009002AA08480194FDF761FC28465A
:1066B0003946324602AB0094FDF7A2F9204601F0BC
:1066C0008DFF0FB0F0BDC046E49100009EB50B46B3
:1066D0000C490F8800F11C013FB1C769006A27B15E
:1066E000BE247F1E00F8014BFBD108690090486969
:1066F00001904C680868C9680019001FFFF738F955
:106700009EBDC046B09400000D48B0B50768002F8C
:1067100014DD002425462846214602F059F8416838
:1067200082688A18521E491E8A43826011460D6093
:106730000269641C4A607F1EC160ECD1B0BDC046D6
:106740003894000008B5B0B92020EFF3118280F32F
:1067500011880949486820B90020088082F311880F
:1067600003E082F31188FEF7E1FD04490122088865
:106770000A8001F063F808BDE424002050280020BE
:10678000F8B5044616460D46142001F06BFB071CB5
:106790000ED00121142202F085F93C72FD603E8288
:1067A0000420B87401F06EFB024A3946FFF734FF4B
:1067B000F8BDC0467B8A000010B504460B4802684D
:1067C0000023D90750080143D007801A4FF47A728A
:1067D0009941FBF73FFA002908BFB0F1004F28BFED
:1067E0006FF000406060002010BDC046449400007F
:1067F00038B50C4C143C606990B121780830491CC4
:106800002170FFF7F7FC0546162D09D0042D07D09F
:1068100060694088002100F09BFE284601F0F0F8F6
:1068200038BDC0465C1B002038B50D46044602F05A
:10683000C6FA10B1204602F08FFA084800684FF4FB
:106840007A71B1FBF0F080B205FB00F1204602F056
:10685000B8FA204601F011FF38BDC046449400004C
:1068600010B50C4C2078401EC0B2207080B9606812
:1068700018B102F0FAF900206060A06830B904F1A4
:106880000C0004F11801FDF7E3FAA060002020706D
:1068900010BDC046BC2700201CB500208DF80400A8
:1068A000082001F0DFFA041C0CD00121122202F0B2
:1068B000F9F801F0E7FA01A90123044A0091214601
:1068C000FFF7C8FE9DF804001CBDC046978A000073
:1068D00008B5FBF79DFB01F043F8FDF71FFDFFF73F
:1068E00069FCFFF75DFE07490F204FF0005251F899
:1068F000043B401E42F8043BF9D102F013F800209B
:1069000008BDC0461010000010B52020EFF3118420
:1069100080F311880948C088012809D1064834212C
:1069200001220023FFF748FA002808BF002000D00A
:10693000012084F3118810BD00A00C40A426002083
:1069400070B506460A490B480D6844592D18A068D1
:10695000064208D0E268216930469047C0B200285C
:1069600018BF012003D12468A542F0D1002070BDDA
:10697000F8930000A426002010B50C4600F098FE05
:10698000211AB1F1004F08D8011B091DC90F05D10B
:10699000001DA04288BF041C00E0041D03480068DD
:1069A000406A214602460120904710BD8C0100102C
:1069B00070B505460E462420ADF1300D0021009043
:1069C00008480193134602AAFCF70AFA041C06D0F1
:1069D0002946324602ABFEF729FD204600E00020A2
:1069E0000CB070BD8492000070B505461C460E4682
:1069F0003C201346ADF1480D2946009002AA0748F5
:106A00000194FDF7B5FA2846314602AA2346FCF761
:106A10008DFB204601F0E2FD12B070BDE492000053
:106A200010B5808F012812D12020EFF3118480F35C
:106A300011880749C868401EC86006D184F31188D0
:106A40000448006A01460020884784F3118810BD7D
:106A500050280020202A002070B506460B48006808
:106A600002F0B7F9084C6568002D08DD206800EBDE
:106A7000850050F8041C304688476D1EF6DC304611
:106A800001F098FF70BDC046242500209C940000B2
:106A900038B50546012411E0C0F11F0004FA00F1E9
:106AA000052881EA050504DB401FC0B2FCF7A6FB00
:106AB00004E004FA00F0C0B200F0F6F9B5FA85F08F
:106AC0002028E9D138BD38B50546012411E0C0F1D0
:106AD0001F0004FA00F1052881EA050504DB401FC8
:106AE000C0B2FCF7E9F904E004FA00F0C0B200F02B
